{
  "contractName": "mortal",
  "abi": [
    {
      "constant": false,
      "inputs": [],
      "name": "kill",
      "outputs": [],
      "payable": false,
      "stateMutability": "nonpayable",
      "type": "function"
    }
  ],
  "bytecode": "0x6060604052336000806101000a81548173ffffffffffffffffffffffffffffffffffffffff021916908373ffffffffffffffffffffffffffffffffffffffff160217905550610112806100536000396000f300606060405260043610603f576000357c0100000000000000000000000000000000000000000000000000000000900463ffffffff16806341c0e1b5146044575b600080fd5b3415604e57600080fd5b60546056565b005b6000809054906101000a900473ffffffffffffffffffffffffffffffffffffffff1673ffffffffffffffffffffffffffffffffffffffff163373ffffffffffffffffffffffffffffffffffffffff16141560e4576000809054906101000a900473ffffffffffffffffffffffffffffffffffffffff1673ffffffffffffffffffffffffffffffffffffffff16ff5b5600a165627a7a723058208716d049e62e8eec4f1f27168b801602a1e81458d7ed4ace600d8a55ebba1d130029",
  "source": "pragma solidity ^0.4.2;\n\ncontract owned {\n    address owner;\n    modifier onlyowner() {\n        if (msg.sender == owner) {\n            _;\n        }\n    }\n    function owned() public {\n        owner = msg.sender;\n    }\n}\ncontract mortal is owned {\n    function kill() public {\n        if (msg.sender == owner)\n            selfdestruct(owner);\n    }\n  }\ncontract FundEth is mortal {\n  struct Project {\n    address addr;\n    string name;\n    string imageUrl;\n    string description;\n    uint amt;\n  }\n  event ProjectNumber(uint _value);\n  mapping ( uint => Project ) projects;\n  uint public totalProjects;\n  uint[] public projectIds;\n  function CreateProject(string name,string description, string imageUrl) payable public {\n    totalProjects++;\n    var project = projects[totalProjects];\n    projectIds.push(totalProjects);\n    project.addr = msg.sender;\n    project.name = name;\n    project.description = description;\n    project.imageUrl = imageUrl;\n    project.amt = 0;\n  }\n  function getProject(uint projectId) view public returns (address, string, string, string, uint){\n    return (projects[projectId].addr, projects[projectId].name, projects[projectId].imageUrl, projects[projectId].description, projects[projectId].amt );\n  }\n  function donateToProject(uint projectId, uint amount) payable public {\n    projects[projectId].amt += amount;\n    var addr = projects[projectId].addr;\n    addr.transfer(msg.value);\n  }\n  function () public {\n  }\n}\n",
  "sourcePath": "/Users/jonathanray/Documents/PRODUCTION_FLEX/Fund-Eth/contracts/FundEth.sol",
  "compiler": {
    "name": "solc",
    "version": "0.4.18+commit.9cf6e910.Emscripten.clang"
  },
  "schemaVersion": "1.0.1",
  "updatedAt": "2018-01-16T23:18:39.755Z"
}